:100000000C94CE000C94F6000C94F6000C94F600C0
:100010000C94F6000C94F6000C94F6000C94F60088
:100020000C94F6000C94F6000C9490060C94FF06C9
:100030000C94F6000C94F6000C94F6000C94F60068
:100040000C94F6000C94F6000C94F6000C94F60058
:100050000C94F6000C94F6000C94F6000C944606F2
:100060000C94F6000C94F6000C94F6000C94F60038
:100070000C94F6000C94F6000C94F6000C94F60028
:100080000C94F6000C94F6000C94F6000C94F60018
:100090000C94F6000C94F6000C94F6000C94F60008
:1000A0000C94F6000C94F6000C94F600080B000279
:1000B0000202000009040000010202000005240001
:1000C0001001052401010104240206052406000193
:1000D0000705810310004009040100020A00000026
:1000E00007050202400000070583024000000403E8
:1000F000090412010002EF02014041233680000191
:100100000102030141726475696E6F204C4C43001B
:1001100041726475696E6F204C656F6E6172646FB9
:100120000000000000240027002A002D00300000FD
:10013000000000250028002B002E003100040404DC
:10014000040403040502020202040302020202067E
:10015000060606060604040202020404040802015C
:100160001040804010204080408008020401804000
:1001700020100201108010204040200000000200EA
:10018000090F0000030401000C0000000000000043
:1001900000000000000000000000650C11241FBEDC
:1001A000CFEFDAE0DEBFCDBF11E0A0E0B1E0E4E5E3
:1001B000F9E102C005900D92A834B107D9F721E00A
:1001C000A8E4B1E001C01D92AE3DB207E1F710E036
:1001D000CEECD0E004C02197FE010E948E0CCD3CF5
:1001E000D107C9F70E9431090C94A80C0C940000A7
:1001F000E8E8F1E02491E9E6F1E03491EAE4F1E0A5
:100200009491992309F430C02223E9F021502F3032
:10021000D0F4E22FF0E0E15FFE4F0C948E0C3D0134
:1002200041011E013501390123012301230144014C
:100230004A014E015201580123015C0120918000C6
:100240002F7720938000E92FF0E0EE0FFF1FE15D94
:10025000FE4FA591B4919FB7F894EC91811132C0F3
:1002600030953E233C939FBF0895209180002F7DC1
:10027000E8CF20918000277FE4CF24B52F7724BDDD
:10028000E2CF24B52F7DFBCF209190002F772093D4
:100290009000D9CF209190002F7DF9CF2091900030
:1002A000277FF5CF2091C0002F772093C000CBCFC0
:1002B0002091C0002F7DF9CF2091C200277F20938D
:1002C000C200C1CF3E2BCECFFC0180918D0188238F
:1002D00011F13FB7F89482E08093E9002091F20099
:1002E000822F90E01816190614F481E090E088231C
:1002F00039F0289844E640938C014091F100408306
:10030000222339F02091F200211103C02BE6209323
:10031000E8003FBF08958FEF9FEF08952FB7F8943F
:1003200083E08093E9009091E800892F807295FF27
:1003300004C09091F20080E4891B2FBF0895809142
:10034000840181110DC082E08093800184E080935C
:100350008101109283011092820181E080938401D7
:1003600080E891E008953FB7F89480917C019091E6
:100370007D01A0917E01B0917F0126B5A89B05C0AB
:100380002F3F19F00196A11DB11D3FBFBA2FA92F14
:10039000982F8827BC01CD01620F711D811D911D11
:1003A00042E0660F771F881F991F4A95D1F708957D
:1003B000CF92DF92EF92FF920E94B3016B017C011A
:1003C0000E94B3016C197D098E099F09683E734034
:1003D00081059105A8F3FF90EF90DF90CF900895ED
:1003E00040914A0150914B012091480130914901BF
:1003F00042175307B4F49091E8009570E1F390919F
:10040000E80092FD19C08093F10080914A0190911B
:100410004B0101968F739927892B19F48EEF8093E6
:10042000E80080914A0190914B01019690934B0115
:1004300080934A0181E0089580E00895EF92FF9251
:100440000F931F93CF93DF93F82E192FE62E042FCF
:1004500081E0860F880F0E94F00183E00E94F00186
:10046000CF2DD12FEC0EFD2EF11CCE15DF05B9F0EE
:1004700007FF13C0FE0184910E94F001182F80E055
:100480000E94F001812321968111EFCFDF91CF915E
:100490001F910F91FF90EF9008958881EDCF81E03B
:1004A000F5CFDF92EF92FF920F931F93CF93DF93DD
:1004B000D82E8A01EB017B01E40EF51ECE15DF0577
:1004C00059F0D7FE12C0FE0184910E94F0012196DE
:1004D0008111F4CF0FEF1FEFC801DF91CF911F9172
:1004E0000F91FF90EF90DF9008958881EECF0F93EA
:1004F0001F93CF93DF931F92CDB7DEB782E089833E
:1005000042E450E06CEA70E080E80E9451020E94F0
:100510009F01DC0112960D911C910115110589F0C6
:10052000D801ED91FC910280F381E02DBE016F5F57
:100530007F4FC801099597FD04C0F801008511851A
:10054000ECCF89810F90DF91CF911F910F9108958A
:10055000615030F02091F100FC0120830196F8CF2A
:10056000289884E680938C0108958F929F92AF9291
:10057000BF92CF92DF92EF92FF920F931F93CF9390
:10058000DF936C017B018A0180910B01882309F4C0
:1005900058C080918D01882309F453C080914E0189
:1005A00080FF05C08091E00082608093E000E80158
:1005B000B12C8AEFA82E93E0892E2AE3922E209761
:1005C00011F4BB20B9F10E948E01811106C0AA94DA
:1005D000AA20B9F10E94D801F2CF8C171D0611F0A4
:1005E0000CF08C2F9FB7F8948092E9002091E800DE
:1005F00025FD02C09FBFE3CF282F30E0C21BD30BE5
:10060000F701815020F041914093F100FACFE20EC2
:10061000F31EBB2021F09092E800B12CEBCF80912B
:10062000E80085FDE7CF9092E800BB24B3942097C3
:1006300009F3F3CF5D9884E680934D0110161106FF
:100640003CF081E090E0F6019383828310E000E0CB
:10065000C801DF91CF911F910F91FF90EF90DF9034
:10066000CF90BF90AF909F908F900895CF93DF93DE
:100670001F92CDB7DEB76983DC01ED91FC9102805A
:10068000F381E02D41E050E0BE016F5F7F4F09959F
:100690000F90DF91CF91089583E08093E9008091DE
:1006A000F200882319F08AE38093E80008950E94FD
:1006B0008E0190E00895CF93DF931F92CDB7DEB700
:1006C000FC018485958597FD08C02FEF3FEF3587A6
:1006D00024870F90DF91CF910895CE0101960E945B
:1006E0006401019719F4898190E0F3CF8FEF9FEFB8
:1006F000F0CF0F931F93CF93DF931F92CDB7DEB749
:100700008C01FC018485958597FF0BC0CE01019675
:100710000E946401019771F4898190E0F801958746
:100720008487F801848595850F90DF91CF911F9183
:100730000F9108958FEF9FEFF1CFFC018485958590
:1007400097FD0BC09FB7F89482E08093E9008091F9
:10075000F2009FBF90E0019608959FB7F89482E061
:100760008093E9008091F2009FBF90E0089567E0D8
:100770008EE891E00C9436036DE08EE891E00C94E5
:10078000360390ED980F9A3028F4082E000C990B40
:10079000C09708959FEB980F963028F4082E000C10
:1007A000990BC79708959FE9980F963030F4082E5B
:1007B000000C990B87559109089590E080E0089509
:1007C0006F927F928F929F92AF92BF92CF92DF9261
:1007D000EF92FF920F931F93CF93DF93EC01590198
:1007E0008FEF860F042F10E08230F8F04901D12CF2
:1007F000C12C662E712CC016D1060CF045C05E01CE
:10080000F12CE12CC5018C1B9D0B8615970594F5E9
:1008100084E0EE0CFF1C8A95E1F7F50181915F0100
:100820000E94C103E82AF92AEDCF6901662E712CD6
:10083000C6018A199B098017910734F54E01F12CE6
:10084000E12CC4018C1B9D0B861597056CF494E07C
:10085000EE0CFF1C9A95E1F7F40181914F010E9483
:10086000C103E82AF92AEDCFC60DD71DF601E192A2
:100870006F01DECFC60DD71DF401E192F1924F0159
:10088000FFEFCF1ADF0AB7CFC801DF91CF911F91D9
:100890000F91FF90EF90DF90CF90BF90AF909F901F
:1008A0008F907F906F900895CF92DF92EF92FF929A
:1008B0000F931F93CF93DF93C42ED12C613089F413
:1008C000DC01E901CE01821B930B8C159D050CF018
:1008D00095C0E991EF70F0E0E95DFE4F80818D9366
:1008E000F1CF6230F1F4DC01E901CE01821B930B00
:1008F0008C159D050CF082C0E991E295EF70F0E057
:10090000E95DFE4F80818C93FE013197E081EF70AD
:10091000F0E0E95DFE4F808111968C93119712965D
:10092000E4CF6330D9F1DC01F90130E020E02C158F
:100930003D050CF063C08181E82EE2948FE0E8224F
:10094000F12CE701C95DDE4F88818C93018110E0B5
:10095000E801CF70DD27C95DDE4F888111968C9349
:100960001197C081D18194E0D695C7959A95E1F70A
:10097000CF70DD27C95DDE4F888112968C93129768
:10098000C191D191CF70DD27C95DDE4F888113966B
:100990008C9313972F5F3F4F1496C9CFFC0190E0C3
:1009A00080E08C159D0554F5D9011196BC91CB2F93
:1009B00050E0D52FDE01AF70BB27A95DBE4F5C9123
:1009C0005083D9010D911C91D80154E0B695A7959B
:1009D0005A95E1F7AF70BB27A95DBE4F5C9151837B
:1009E000D9010D911D919D01D801AF70BB27A95D63
:1009F000BE4F5C91528301963396D3CF649FC00162
:100A00001124DF91CF911F910F91FF90EF90DF9014
:100A1000CF9008958EBD0DB407FEFDCF8EB508951D
:100A2000CF93C82F2D9885E00E940A058CE20E9482
:100A30000A058C2F0E940A0580E00E940A052D9A63
:100A4000CF9108952D980E940A058FEF0E940A0504
:100A50002D9A0895BF92CF92DF92EF92FF920F935B
:100A60001F93CF93DF93CDB7DEB72D970FB6F894D2
:100A7000DEBF0FBECDBF2DE0FC01DE01119601905F
:100A80000D922A95E1F7FC0100811181C280B380AB
:100A9000F480F694F694FF2DFF70FF2E80EA0E94FA
:100AA000220582FF08C084FF58C054E0E52E86FF6F
:100AB00003C080E042C0E12C2D988E2D80640E94FE
:100AC0000A058F2D8F70D82E880F880F9D81937CFB
:100AD000982B9D8391FF44C0C80135E0969587957A
:100AE0003A95E1F70E940A05802F83708860000F15
:100AF000000F000F007E802B0E940A058B2D0E94A4
:100B00000A058C2D0E940A05DD0CDD0C8D81837C8D
:100B10008D298D8380FF37C08F2D80640E940A0548
:100B20002D9A00002D98E11002C0EE24E3948E2D42
:100B300080680E940A052D9A81E02D960FB6F894E0
:100B4000DEBF0FBECDBFDF91CF911F910F91FF9000
:100B5000EF90DF90CF90BF90089542E0E42EACCFAD
:100B6000C80123E0969587952A95E1F70E940A052A
:100B7000802F8295880F807E0E940A0580E00E9467
:100B80000A0580E0BFCF8F2D0E940A056E01E6E0C6
:100B9000CE0ED11C10E0F11619F2F60181916F0111
:100BA0000E940A051F5FF7CFCF93DF93D82FC62F80
:100BB0002D9882E00E940A058D2F0E940A058C2F35
:100BC0000E940A052D9ADF91CF910895FC010190B2
:100BD0000020E9F73197AF01481B590BBC018EE8A3
:100BE00091E00C94B502CF93C82F2D9A259A29989D
:100BF0002A982B98209A219A229A23986E98769A6E
:100C000081E58CBD1DBC2D9880EC0E940A052D9AB3
:100C100085E38A95F1F700002D9882E00E940A058D
:100C200088E20E940A0582E00E940A0580E90E948B
:100C30000A058C2F0E940A0583E00E940A052D9A5E
:100C40002D9883E00E940A058AE20E940A058FEF30
:100C50000E940A052D9AC81317C060E08CE00E941C
:100C6000D40560E08DE00E94D40560E680E60E9435
:100C7000D40560E680E70E94D40560E08FE00E9422
:100C8000D40581E0CF91089580E0FCCF1F920F92B0
:100C90000FB60F9211242F933F938F939F93AF938F
:100CA000BF938091780190917901A0917A01B091E0
:100CB0007B013091770123E0230F2D3758F5019602
:100CC000A11DB11D20937701809378019093790144
:100CD000A0937A01B0937B0180917C0190917D017A
:100CE000A0917E01B0917F010196A11DB11D80935D
:100CF0007C0190937D01A0937E01B0937F01BF9111
:100D0000AF919F918F913F912F910F900FBE0F90B8
:100D10001F90189526E8230F0296A11DB11DD2CF72
:100D20001F920F920FB60F9211248F939F93809171
:100D3000E1009091E100937F9093E10083FF0FC069
:100D40001092E90091E09093EB001092EC0092E396
:100D50009093ED0010928D0198E09093F00082FF47
:100D600022C093E09093E9009091F200992319F04A
:100D70009AE39093E80090914D01992341F090916E
:100D80004D01915090934D01911101C05D9A909148
:100D90008C01992341F090918C01915090938C019A
:100DA000911101C0289A84FF18C08091E2008E7EC4
:100DB00081608093E2008091E1008F7E8093E1006A
:100DC00080914E018E7E806180934E019F918F9124
:100DD0000F900FBE0F901F90189580FFF7CF809156
:100DE000E2008E7E80618093E2008091E1008E7E41
:100DF0008093E10080914E018E7E8160E5CF1F924D
:100E00000F920FB60F921124CF92DF92EF92FF92C2
:100E10000F931F932F933F934F935F936F937F9302
:100E20008F939F93AF93BF93EF93FF93CF93DF93F2
:100E3000CDB7DEB76C97DEBFCDBF1092E9008091D1
:100E4000E80083FF25C068E0CE0145960E94A80215
:100E500082EF8093E8008D8987FF39C09091E80088
:100E600090FFFCCF982F907609F034C19E894F896E
:100E7000588D2F89F88C911131C0803861F580919F
:100E80004F018093F1001092F1008EEF8093E80003
:100E90006C960FB6F894DEBF0FBECDBFDF91CF9139
:100EA000FF91EF91BF91AF919F918F917F916F9142
:100EB0005F914F913F912F911F910F91FF90EF9074
:100EC000DF90CF900F900FBE0F901F9018959EEF60
:100ED0009093E800C7CF1092F100D5CF913059F42C
:100EE0008111D3CF4130510581F680914F018D7F23
:100EF00080934F01CACF933049F48111C6CF41305E
:100F0000510519F680914F018260F2CF953041F47E
:100F10008091E80080FFFCCF20682093E300B5CFEC
:100F2000963009F0A9C00B8D1C8D22E01092E900CB
:100F300010924B0110924A01F2122EC010924901F8
:100F4000109248010E9477021F8299E09983FA82E9
:100F500091E09E8390EA98879AEF998720914A01C1
:100F600030914B01275F3F4F3C832B838D83109241
:100F7000E90010924B0110924A011093490100932D
:100F8000480149E050E0BE016F5F7F4F80E00E9462
:100F900051020E94770279CF1093490100934801D2
:100FA0000E949F01DC0112960D911C910115110503
:100FB00009F451C1D801ED91FC910480F581E02D37
:100FC000BE016B5E7F4FC8010995009709F03EC1D5
:100FD000F80100851185EACFF3E0FF120EC08F897A
:100FE000882309F440C0823061F440E860E180E188
:100FF00091E00E941E02811148CF81E28093EB00B4
:1010000047CF813029F440E86BE084E091E0F1CFF4
:10101000833099F70E949F01DC011296ED90FC90BD
:101020008E010F5F1F4F6801E114F10479F0D701C1
:10103000ED91FC910680F781E02DB801C70109957B
:10104000080F111DF701E084F184EECFD8011C9246
:10105000F60101900020E9F73197BF016C197D0975
:1010600040E0C601C6CF6EEE70E0FB01449150E057
:1010700080E80E94510209CF973009F4BECF983022
:1010800021F481E08093F10000CF993009F0FDCE8A
:10109000837009F0B2CFE1E2F1E081E031E096E364
:1010A0002191222371F08093E9003093EB00DF015E
:1010B00011972C912093EC009093ED008F5F873077
:1010C00079F78EE78093EA001092EA008F89809387
:1010D0008D01DBCE8B8D9C8D1092E90010924B011F
:1010E00010924A019093490180934801898D8111A2
:1010F00092C08E899D89913A49F4813209F07DCF61
:1011000047E050E064E071E080E0B3CF913209F055
:1011100074CF833269F48F89988DB0E0A0E080931A
:10112000000190930101A0930201B0930301ADCEA1
:10113000803269F48091E80082FFFCCF67E084E0B0
:1011400091E00E94A8028BEF8093E8009ECE82324D
:1011500009F09BCE8F8980930B01EEEFFFE785911D
:1011600094918B3F9C4D51F1E0E0F8E080910401B7
:1011700090910501A0910601B0910701803B944038
:10118000A105B105F1F480910B0180FD1AC0EE3F7D
:101190008AE0F80789F587E797E791838083809154
:1011A000600080934C0188E19BE00FB6F894A8950D
:1011B000809360000FBE9093600067CEEEEFFAE080
:1011C000D5CF808191818737974709F05ECEA8956A
:1011D0008091600088618093600080914C018093D1
:1011E0006000EE3F2AE0F20789F08091FE0A9091BC
:1011F000FF0A9183808349CE808191818737980748
:1012000051F29093FF0A8093FE0AC5CF1092FF0A15
:101210001092FE0A3ACE0E949F01DC0112960D91B7
:101220001C910115110509F4E8CED801ED91FC914E
:101230000190F081E02DBE016B5E7F4FC8010995E2
:10124000811123CEF80100851185EBCF1816190600
:101250000CF41BCED2CEF1E0FF12BECE62EF70E0F6
:1012600004CFCF93DF93CDB7DEB7EC970FB6F894EA
:10127000DEBF0FBECDBF789484B5826084BD84B5D7
:10128000816084BD85B5826085BD85B5816085BD81
:1012900080916E00816080936E0010928100809139
:1012A00081008260809381008091810081608093C1
:1012B0008100809180008160809380008091910006
:1012C0008260809391008091910081608093910071
:1012D000809190008160809390008091C100846033
:1012E0008093C1008091C10082608093C100809191
:1012F000C10081608093C1008091C30081608093B0
:10130000C3008091C00082608093C0008091C200C1
:1013100081608093C20080917A00846080937A001B
:1013200080917A00826080937A0080917A00816057
:1013300080937A0080917A00806880937A0010927E
:101340008D0110924F0110924E018091D700816063
:101350008093D70080EA8093D80089B5806189BDE9
:1013600089B5826089BD09B400FEFDCF0E94D80115
:101370008091D8008F7C80618093D8008091E000BC
:10138000807F8093E0008091E1008E7E8093E10079
:101390008DE08093E200559A209AE9E6F1E02491ED
:1013A000EAE4F1E08491882399F090E0880F991F96
:1013B000FC01EF5DFE4FA591B491FC01E15DFE4F94
:1013C000859194918FB7F894EC91E22BEC938FBFB9
:1013D0008FEF9FEF90939B0180939A0180910C0176
:1013E0000E94F305A4E7CA2EB2E77B2E1AE0A12ED5
:1013F000B12C04E5602E66990AC180EB0E9422059B
:10140000D82E8074382E80E9D6FC03C0D7FEFFC0EA
:1014100084E92D980E940A059D2D9071992E8FEFD9
:10142000D4FEBDC00E940A05082F8FEF0E940A0556
:10143000E0E20E9F80011124982F9370092B90E019
:10144000F3E096958795FA95E1F78C719927082B2B
:10145000192B8FEF0E940A05E82E8FEF0E940A05D4
:10146000FE2CE82E8FEF0E940A058F70482ED29432
:10147000E0EFDE22DD0CDD0855245394911001C00D
:10148000512C579455245794550C55084E0187E21A
:10149000880E911C212C421097C02D9A81E03110AA
:1014A00001C082E00E9410051BA30AA3FDA2ECA2CA
:1014B0009EA1D0FA90F950FA91F9440C440C937C17
:1014C00094299EA38DE0FE01B296DE019F960190C5
:1014D0000D928A95E1F79BA9892F817091FF7EC0BB
:1014E000882309F479C082E589839E01215D3F4FFD
:1014F00041E064E0CE0102960E94540402E010E054
:101500000C0F1D1F080F191F9E012F5C3F4F41E05C
:1015100064E0C8010E945404080F191F8BA9869526
:1015200086958F7090E0B5010E947A0C8CAF9E0179
:10153000245C3F4F41E061E0C8010E945404080F61
:10154000191F4BA9469546954F709E012C5C3F4F45
:1015500062E0C8010E945404080F191F80915201D3
:1015600090915301892B91F020E531E041E064E056
:10157000C8010E945404080F191F809150019091D6
:101580005101019690935101809350018DE0F80133
:1015900080831182CE0101960E94E6052CCF0E9425
:1015A0000A05082F8FEF0E940A05F8E00F9F8001BF
:1015B0001124829586958770082B8FEF0E940A056B
:1015C0008FEF0E940A054ECF8FEF0E940A05F401AB
:1015D00081934F0123945FCF698287CF8823A9F03D
:1015E00079829E01215D3F4F41E063E0CE0102968A
:1015F0000E94540402E010E00C0F1D1F080F191F79
:101600008BA9869586958F7091CFC982EACF8EE897
:1016100091E00E949D035C01181619066CF5D12C0F
:10162000C12C88248394912C69E0262E312C77E0FC
:10163000472E512C8EE891E00E945B03409175018A
:10164000509176019A012F5F3F4F3093760120939E
:1016500075014C5A5E4FFA01808321323105A1F4A5
:101660000E94B70310927601109275019FEFC91A7C
:10167000D90AAC14BD04F1F680E090E0892B09F49E
:10168000B1CE0E940000AECE8D3081F72C5A3E4F75
:10169000F901108280915401833509F4E9C00CF0FE
:1016A00068C08D3409F47BC054F4833409F482C0DB
:1016B0008634B1F688E391E00E94E60570C08F346D
:1016C00009F470C00CF4FEC0823551F6E4E5F1E097
:1016D00001900020E9F78F01055511409801215034
:1016E0003109682E082E000C77087594679485FFE1
:1016F00065C0243031050CF452C09E012E5D3F4F71
:1017000041E063E085E591E00E94E0038AA19BA1AE
:101710009A8389838D8160FA80F98D7F8D839E0104
:10172000215D3F4F41E061E088E591E00E94E003E8
:101730004FA54F70942F990F990F8D81837C892B22
:101740008D8306501109842F90E0880F991F081788
:10175000190729F59E012A5F3F4F62E089E591E074
:101760000E94E003CE0101960E942A058823D1F34E
:1017700016C08A3509F469C04CF4843509F4A6CF43
:10178000863509F06DCF8CE391E096CF823709F46E
:101790009DCF843709F49ACF8D3609F061CF0E942E
:1017A000BC0360CF81E00E94F80080910C010E9490
:1017B000F305F5CF80E00E94F800F1CF2930310524
:1017C00074F39E012E5D3F4F42E064E085E591E0B9
:1017D0000E94E0038AA19BA19F719A8389838CA1B7
:1017E0009DA19C838B838D8160FA80F9FFEFF0FBD4
:1017F00081F98D839E01215D3F4F41E061E08DE5E0
:1018000091E00E94E0034FA54F70942F990F990F1C
:101810008D81837C892B8D830B501109842F90E05F
:10182000880F991F0817190709F0B9CF9E012A5F81
:101830003F4F62E08EE591E00E94E003CE01019609
:101840000E942A058823D1F3AACF809155018033C5
:1018500029F41092530110925201A1CF813329F43F
:1018600090925301809252019ACF0E94B70397CF72
:10187000809155018533D1F054F4833391F0843352
:1018800009F0EECE50920D0140920C0188CF8633C4
:10189000A1F0883309F0E4CE10920D0110920C01F2
:1018A0007ECF30920D0120920C0179CF83E090E041
:1018B00090930D0180930C0172CF90920D01809254
:1018C0000C016DCF82E491E0F7CEEEE8F1E01382F7
:1018D000128288EE93E0A0E0B0E084839583A68333
:1018E000B78382E191E0918380838FEF9FEF9587AB
:1018F0008487089597FB072E16F4009407D077FD90
:1019000009D00E94940C07FC05D03EF49095819577
:101910009F4F0895709561957F4F0895EE0FFF1FBB
:101920000590F491E02D0994AA1BBB1B51E107C05F
:10193000AA1FBB1FA617B70710F0A61BB70B881F5F
:10194000991F5A95A9F780959095BC01CD010895EE
:04195000F894FFCF39
:10195400FFFFFFFF00E100000000000001000000A5
:1019640000003603B50257034C039D035B03790360
:1019740000C18081000000303132333435363738CD
:1019840039414243444546004631320056313233F0
:0819940034004E3132333400FF
:00000001FF
