:100000000C945D000C9485000C9485000C94850084
:100010000C9485000C9485000C9485000C9485004C
:100020000C9485000C9485000C9485000C9485003C
:100030000C9485000C9485000C9485000C9485002C
:100040000C946B040C9485000C94DB040C94B504A4
:100050000C9485000C9485000C9485000C9485000C
:100060000C9485000C9485000000000024002700FB
:100070002A0000000000250028002B0004040404CE
:100080000404040402020202020203030303030342
:10009000010204081020408001020408102001021F
:1000A00004081020000000080002010000030407FB
:1000B0000000000000000000250811241FBECFEF43
:1000C000D4E0DEBFCDBF11E0A0E0B1E0E4E0F1E1BB
:1000D00002C005900D92A633B107D9F722E0A6E33E
:1000E000B1E001C01D92A330B207E1F710E0CDE509
:1000F000D0E004C02197FE010E947A08CC35D107D8
:10010000C9F70E940D050C9480080C940000E7EAE2
:10011000F0E02491E3E9F0E09491EFE7F0E0E4917E
:10012000EE23C9F0222339F0233001F1A8F4213065
:1001300019F1223029F1F0E0EE0FFF1FEE58FF4FCA
:10014000A591B4912FB7F894EC91811126C09095A8
:100150009E239C932FBF08952730A9F02830C9F023
:10016000243049F7209180002F7D03C0209180002A
:100170002F7720938000DFCF24B52F7724BDDBCFEE
:1001800024B52F7DFBCF2091B0002F772093B000B6
:10019000D2CF2091B0002F7DF9CF9E2BDACFAF9236
:1001A000BF92CF92DF92EF92FF920F931F93CF9364
:1001B000DF936C017B018B01040F151FEB015E01C6
:1001C000AE18BF08C017D10759F06991D601ED915B
:1001D000FC910190F081E02DC6010995892B79F7FA
:1001E000C501DF91CF911F910F91FF90EF90DF90AC
:1001F000CF90BF90AF900895FC01538D448D252F73
:1002000030E0842F90E0821B930B541710F0CF96B0
:10021000089501970895FC01918D828D981761F0E2
:10022000A28DAE0FBF2FB11D5D968C91928D9F5FF9
:100230009F73928F90E008958FEF9FEF0895FC01D8
:10024000918D828D981731F0828DE80FF11D858D8B
:1002500090E008958FEF9FEF0895FC01918D228D1E
:10026000892F90E0805C9F4F821B91098F739927A3
:10027000089586E691E00E942D0121E0892B09F482
:1002800020E0822F089580E090E0892B29F00E94E1
:10029000390181110C9400000895FC01A48DA80F70
:1002A000B92FB11DA35ABF4F2C91848D90E00196B8
:1002B0008F739927848FA689B7892C93A089B189D8
:1002C0008C91837080648C93938D848D981306C079
:1002D0000288F389E02D80818F7D80830895EF92DD
:1002E000FF920F931F93CF93DF93EC0181E0888FF0
:1002F0009B8D8C8D98131AC0E889F989808185FFC0
:1003000015C09FB7F894EE89FF896083E889F98961
:1003100080818370806480839FBF81E090E0DF9163
:10032000CF911F910F91FF90EF900895F62E0B8DB6
:1003300010E00F5F1F4F0F731127E02E8C8D8E1171
:100340000CC00FB607FCFACFE889F989808185FFD8
:10035000F5CFCE010E944D01F1CFEB8DEC0FFD2FBB
:10036000F11DE35AFF4FF0829FB7F8940B8FEA8993
:10037000FB8980818062CFCFCF93DF93EC01888DA2
:100380008823B9F0AA89BB89E889F9898C9185FD10
:1003900003C0808186FD0DC00FB607FCF7CF8C919E
:1003A00085FFF2CF808185FFEDCFCE010E944D0108
:1003B000E9CFDF91CF91089567E086E691E00C9454
:1003C0006F016DE086E691E00C946F0190ED980F5F
:1003D0009A3028F4082E000C990BC09708959FEBD3
:1003E000980F963028F4082E000C990BC7970895A3
:1003F0009FE9980F963030F4082E000C990B875522
:100400009109089590E080E008956F927F928F9215
:100410009F92AF92BF92CF92DF92EF92FF920F9393
:100420001F93CF93DF93EC0159018FEF860F042FB9
:1004300010E08230F8F04901D12CC12C662E712CCD
:10044000C016D1060CF045C05E01F12CE12CC501AF
:100450008C1B9D0B8615970594F584E0EE0CFF1C14
:100460008A95E1F7F50181915F010E94E601E82A92
:10047000F92AEDCF6901662E712CC6018A199B09F4
:100480008017910734F54E01F12CE12CC4018C1B2F
:100490009D0B861597056CF494E0EE0CFF1C9A9565
:1004A000E1F7F40181914F010E94E601E82AF92A5F
:1004B000EDCFC60DD71DF601E1926F01DECFC60D5F
:1004C000D71DF401E192F1924F01FFEFCF1ADF0A3D
:1004D000B7CFC801DF91CF911F910F91FF90EF909F
:1004E000DF90CF90BF90AF909F908F907F906F9054
:1004F0000895CF92DF92EF92FF920F931F93CF93C5
:10050000DF93C42ED12C613089F4DC01E901CE01E6
:10051000821B930B8C159D050CF095C0E991EF7033
:10052000F0E0EC5EFE4F80818D93F1CF6230F1F40C
:10053000DC01E901CE01821B930B8C159D050CF0AB
:1005400082C0E991E295EF70F0E0EC5EFE4F8081B1
:100550008C93FE013197E081EF70F0E0EC5EFE4F8E
:10056000808111968C9311971296E4CF6330D9F164
:10057000DC01F90130E020E02C153D050CF063C0F2
:100580008181E82EE2948FE0E822F12CE701CC5E35
:10059000DE4F88818C93018110E0E801CF70DD2768
:1005A000CC5EDE4F888111968C931197C081D181EA
:1005B00094E0D695C7959A95E1F7CF70DD27CC5E8C
:1005C000DE4F888112968C931297C191D191CF7092
:1005D000DD27CC5EDE4F888113968C9313972F5FB7
:1005E0003F4F1496C9CFFC0190E080E08C159D052B
:1005F00054F5D9011196BC91CB2F50E0D52FDE01D7
:10060000AF70BB27AC5EBE4F5C915083D9010D919A
:100610001C91D80154E0B695A7955A95E1F7AF70B3
:10062000BB27AC5EBE4F5C915183D9010D911D91EA
:100630009D01D801AF70BB27AC5EBE4F5C91528369
:1006400001963396D3CF649FC0011124DF91CF91DF
:100650001F910F91FF90EF90DF90CF9008958EBD86
:100660000DB407FEFDCF8EB50895CF93C82F2998FE
:1006700085E00E942F038CE20E942F038C2F0E94A2
:100680002F0380E00E942F03299ACF910895299883
:100690000E942F038FEF0E942F03299A0895BF9283
:1006A000CF92DF92EF92FF920F931F93CF93DF933E
:1006B000CDB7DEB72D970FB6F894DEBF0FBECDBF16
:1006C0002DE0FC01DE01119601900D922A95E1F7D3
:1006D000FC0100811181C280B380F480F694F6940D
:1006E000FF2DFF70FF2E80EA0E94470382FF08C0A3
:1006F00084FF58C054E0E52E86FF03C080E042C06E
:10070000E12C29988E2D80640E942F038F2D8F70ED
:10071000D82E880F880F9D81937C982B9D8391FF05
:1007200044C0C80135E0969587953A95E1F70E9457
:100730002F03802F83708860000F000F000F007E52
:10074000802B0E942F038B2D0E942F038C2D0E9443
:100750002F03DD0CDD0C8D81837C8D298D8380FF43
:1007600037C08F2D80640E942F03299A000029989A
:10077000E11002C0EE24E3948E2D80680E942F03C6
:10078000299A81E02D960FB6F894DEBF0FBECDBF3B
:10079000DF91CF911F910F91FF90EF90DF90CF905D
:1007A000BF90089542E0E42EACCFC80123E09695B7
:1007B00087952A95E1F70E942F03802F8295880F55
:1007C000807E0E942F0380E00E942F0380E0BFCF35
:1007D0008F2D0E942F036E01E6E0CE0ED11C10E09B
:1007E000F11619F2F60181916F010E942F031F5F2C
:1007F000F7CFCF93DF93D82FC62F299882E00E949E
:100800002F038D2F0E942F038C2F0E942F03299AD4
:10081000DF91CF910895FC0101900020E9F7319715
:10082000AF01481B590BBC0186E691E00C94CF0048
:10083000CF93C82F299A219A2D982B982C98229AD9
:10084000259A239A249852985A9A81E58CBD1DBC0A
:10085000299880EC0E942F03299A8AE18A95F1F762
:1008600000C0299882E00E942F0388E20E942F0393
:1008700082E00E942F0380E90E942F038C2F0E94A8
:100880002F0383E00E942F03299A299883E00E9476
:100890002F038AE20E942F038FEF0E942F03299AD1
:1008A000C81317C060E08CE00E94F90360E08DE09F
:1008B0000E94F90360E680E60E94F90360E680E7A3
:1008C0000E94F90360E08FE00E94F90381E0CF917C
:1008D000089580E0FCCF1F920F920FB60F92112463
:1008E0002F933F938F939F93AF93BF938091620118
:1008F00090916301A0916401B09165013091610113
:1009000026E0230F2D3758F50296A11DB11D209327
:1009100061018093620190936301A0936401B0939D
:10092000650180915D0190915E01A0915F01B091A0
:1009300060010196A11DB11D80935D0190935E0140
:10094000A0935F01B0936001BF91AF919F918F9190
:100950003F912F910F900FBE0F901F90189529E88F
:10096000230F0396A11DB11DD2CF1F920F920FB678
:100970000F9211242F933F934F935F936F937F9325
:100980008F939F93AF93BF93EF93FF9386E691E08E
:100990000E944D01FF91EF91BF91AF919F918F9177
:1009A0007F916F915F914F913F912F910F900FBE6B
:1009B0000F901F9018951F920F920FB60F9211244F
:1009C0002F938F939F93EF93FF93E0917601F09194
:1009D00077018081E0917C01F0917D0182FD1BC057
:1009E000908180917F018F5F8F73209180018217AA
:1009F00041F0E0917F01F0E0EA59FE4F958F80933E
:100A00007F01FF91EF919F918F912F910F900FBEDA
:100A10000F901F9018958081F4CFCF93DF93CDB7BF
:100A2000DEB7EC970FB6F894DEBF0FBECDBF78945B
:100A300084B5826084BD84B5816084BD85B58260E3
:100A400085BD85B5816085BD80916E008160809394
:100A50006E001092810080918100826080938100FD
:100A6000809181008160809381008091800081600D
:100A7000809380008091B10084608093B100809168
:100A8000B00081608093B00080917A008460809390
:100A90007A0080917A00826080937A0080917A0057
:100AA0008E7F80937A0080917A00806880937A00AC
:100AB0001092C100E3E9F0E02491EFE7F0E08491C7
:100AC000882399F090E0880F991FFC01E859FF4FA7
:100AD000A591B491FC01EE58FF4F859194918FB789
:100AE000F894EC91E22BEC938FBFE0917601F091BA
:100AF000770182E08083E0917201F09173011082AE
:100B0000E0917401F0917501108210927E01E091E4
:100B10007A01F0917B0186E08083E0917801F09189
:100B20007901808180618083E0917801F091790181
:100B3000808188608083E0917801F09179018081E3
:100B400080688083E0917801F091790180818F7DC8
:100B50008083809100010E941804A4E7CA2EB2E7A6
:100B60007B2E1AE0A12EB12C04E5602E4A990AC111
:100B700080EB0E944703D82E8074382E80E9D6FC83
:100B800003C0D7FEFFC084E929980E942F039D2D42
:100B90009071992E8FEFD4FEBDC00E942F03082FB5
:100BA0008FEF0E942F03E0E20E9F80011124982F07
:100BB0009370092B90E0F3E096958795FA95E1F70D
:100BC0008C719927082B192B8FEF0E942F03E82E89
:100BD0008FEF0E942F03FE2CE82E8FEF0E942F0331
:100BE0008F70482ED294E0EFDE22DD0CDD08552414
:100BF0005394911001C0512C579455245794550C7F
:100C000055084E0187E2880E911C212C421097C096
:100C1000299A81E0311001C082E00E9435031BA3B4
:100C20000AA3FDA2ECA29EA1D0FA90F950FA91F984
:100C3000440C440C937C94299EA38DE0FE01B29653
:100C4000DE019F9601900D928A95E1F79BA9892F6D
:100C5000817091FF7EC0882309F479C082E5898381
:100C60009E01215D3F4F41E064E0CE0102960E946B
:100C7000790202E010E00C0F1D1F080F191F9E01E2
:100C80002F5C3F4F41E064E0C8010E947902080FE9
:100C9000191F8BA9869586958F7090E0B5010E94EB
:100CA00052088CAF9E01245C3F4F41E061E0C801D7
:100CB0000E947902080F191F4BA9469546954F705F
:100CC0009E012C5C3F4F62E0C8010E947902080F30
:100CD000191F8091380190913901892B91F026E3F9
:100CE00031E041E064E0C8010E947902080F191F59
:100CF000809136019091370101969093370180934E
:100D000036018DE0F80180831182CE0101960E94A8
:100D10000B042CCF0E942F03082F8FEF0E942F036C
:100D2000F8E00F9F80011124829586958770082B2B
:100D30008FEF0E942F038FEF0E942F034ECF8FEF74
:100D40000E942F03F40181934F0123945FCF6982A6
:100D500087CF8823A9F079829E01215D3F4F41E032
:100D600063E0CE0102960E94790202E010E00C0FCF
:100D70001D1F080F191F8BA9869586958F7091CF1F
:100D8000C982EACF86E691E00E942D015C01181627
:100D900019066CF5D12CC12C88248394912C69E020
:100DA000262E312C77E0472E512C86E691E00E94CA
:100DB0000B0140915B0150915C019A012F5F3F4F05
:100DC00030935C0120935B01465C5E4FFA018083A7
:100DD00021323105C9F40E94DC0110925C011092AD
:100DE0005B019FEFC91AD90AAC14BD04F1F680E08B
:100DF00090E0892B09F4B1CE0E943901882309F4CF
:100E0000ACCE0E940000A9CE8D3059F7265C3E4F33
:100E1000F901108280913A01833509F4E9C00CF0A0
:100E200068C08D3409F47BC054F4833409F482C063
:100E3000863489F685E291E00E940B0470C08F34FD
:100E400009F470C00CF4FEC0823529F6EAE3F1E043
:100E500001900020E9F78F010B53114098012150B8
:100E60003109682E082E000C77087594679485FF69
:100E700065C0243031050CF452C09E012E5D3F4FF9
:100E800041E063E08BE391E00E9405028AA19BA10F
:100E90009A8389838D8160FA80F98D7F8D839E018D
:100EA000215D3F4F41E061E08EE391E00E94050249
:100EB0004FA54F70942F990F990F8D81837C892BAB
:100EC0008D8306501109842F90E0880F991F081711
:100ED000190729F59E012A5F3F4F62E08FE391E0F9
:100EE0000E940502CE0101960E944F038823D1F390
:100EF00016C08A3509F469C04CF4843509F4A6CFCC
:100F0000863509F068CF89E291E096CF823709F4FF
:100F10009DCF843709F49ACF8D3609F05CCF0E94BB
:100F2000E1015BCF81E00E948700809100010E9477
:100F30001804F5CF80E00E948700F1CF29303105F9
:100F400074F39E012E5D3F4F42E064E08BE391E03D
:100F50000E9405028AA19BA19F719A8389838CA11B
:100F60009DA19C838B838D8160FA80F9FFEFF0FB5C
:100F700081F98D839E01215D3F4F41E061E083E473
:100F800091E00E9405024FA54F70942F990F990F81
:100F90008D81837C892B8D830B501109842F90E0E8
:100FA000880F991F0817190709F0B9CF9E012A5F0A
:100FB0003F4F62E084E491E00E940502CE01019679
:100FC0000E944F038823D1F3AACF80913B01803345
:100FD00029F41092390110923801A1CF813329F4FC
:100FE00090923901809238019ACF0E94DC0197CF0C
:100FF00080913B018533D1F054F4833391F08433F5
:1010000009F0E9CE509201014092000188CF863369
:10101000A1F0883309F0DFCE109201011092000197
:101020007ECF309201012092000179CF83E090E0E1
:10103000909301018093000172CF90920101809200
:1010400000016DCF8FE291E0F7CEE6E6F1E013828A
:10105000128288EE93E0A0E0B0E084839583A683BB
:10106000B78386E091E09183808385EC90E095875B
:10107000848784EC90E09787868780EC90E0918B62
:10108000808B81EC90E0938B828B82EC90E0958B4F
:10109000848B86EC90E0978B868B118E128E138E4C
:1010A000148E089597FB072E16F4009407D077FD51
:1010B00009D00E94660807FC05D03EF49095819502
:1010C0009F4F0895709561957F4F0895AA1BBB1B94
:1010D00051E107C0AA1FBB1FA617B70710F0A61B38
:1010E000B70B881F991F5A95A9F780959095BC0159
:1010F000CD010895EE0FFF1F0590F491E02D0994A6
:04110000F894FFCF91
:101104000100000000006F01CF00FC00BC012D01B4
:101114000B011F013031323334353637383941420F
:101124004344454600463132005631323334004E92
:06113400313233340000EB
:00000001FF
